{
  "contractName": "CountdownGriefing",
  "abi": [
    {
      "anonymous": false,
      "inputs": [
        {
          "indexed": false,
          "internalType": "uint256",
          "name": "deadline",
          "type": "uint256"
        }
      ],
      "name": "DeadlineSet",
      "type": "event"
    },
    {
      "anonymous": false,
      "inputs": [
        {
          "indexed": false,
          "internalType": "enum TokenManager.Tokens",
          "name": "tokenID",
          "type": "uint8"
        },
        {
          "indexed": false,
          "internalType": "address",
          "name": "user",
          "type": "address"
        },
        {
          "indexed": false,
          "internalType": "uint256",
          "name": "amount",
          "type": "uint256"
        },
        {
          "indexed": false,
          "internalType": "uint256",
          "name": "newDeposit",
          "type": "uint256"
        }
      ],
      "name": "DepositDecreased",
      "type": "event"
    },
    {
      "anonymous": false,
      "inputs": [
        {
          "indexed": false,
          "internalType": "enum TokenManager.Tokens",
          "name": "tokenID",
          "type": "uint8"
        },
        {
          "indexed": false,
          "internalType": "address",
          "name": "user",
          "type": "address"
        },
        {
          "indexed": false,
          "internalType": "uint256",
          "name": "amount",
          "type": "uint256"
        },
        {
          "indexed": false,
          "internalType": "uint256",
          "name": "newDeposit",
          "type": "uint256"
        }
      ],
      "name": "DepositIncreased",
      "type": "event"
    },
    {
      "anonymous": false,
      "inputs": [
        {
          "indexed": false,
          "internalType": "address",
          "name": "punisher",
          "type": "address"
        },
        {
          "indexed": false,
          "internalType": "address",
          "name": "staker",
          "type": "address"
        },
        {
          "indexed": false,
          "internalType": "uint256",
          "name": "punishment",
          "type": "uint256"
        },
        {
          "indexed": false,
          "internalType": "uint256",
          "name": "cost",
          "type": "uint256"
        },
        {
          "indexed": false,
          "internalType": "bytes",
          "name": "message",
          "type": "bytes"
        }
      ],
      "name": "Griefed",
      "type": "event"
    },
    {
      "anonymous": false,
      "inputs": [
        {
          "indexed": false,
          "internalType": "address",
          "name": "operator",
          "type": "address"
        },
        {
          "indexed": false,
          "internalType": "address",
          "name": "staker",
          "type": "address"
        },
        {
          "indexed": false,
          "internalType": "address",
          "name": "counterparty",
          "type": "address"
        },
        {
          "indexed": false,
          "internalType": "enum TokenManager.Tokens",
          "name": "tokenID",
          "type": "uint8"
        },
        {
          "indexed": false,
          "internalType": "uint256",
          "name": "ratio",
          "type": "uint256"
        },
        {
          "indexed": false,
          "internalType": "enum Griefing.RatioType",
          "name": "ratioType",
          "type": "uint8"
        },
        {
          "indexed": false,
          "internalType": "uint256",
          "name": "countdownLength",
          "type": "uint256"
        },
        {
          "indexed": false,
          "internalType": "bytes",
          "name": "metadata",
          "type": "bytes"
        }
      ],
      "name": "Initialized",
      "type": "event"
    },
    {
      "anonymous": false,
      "inputs": [
        {
          "indexed": false,
          "internalType": "uint256",
          "name": "length",
          "type": "uint256"
        }
      ],
      "name": "LengthSet",
      "type": "event"
    },
    {
      "anonymous": false,
      "inputs": [
        {
          "indexed": false,
          "internalType": "bytes",
          "name": "metadata",
          "type": "bytes"
        }
      ],
      "name": "MetadataSet",
      "type": "event"
    },
    {
      "anonymous": false,
      "inputs": [
        {
          "indexed": false,
          "internalType": "address",
          "name": "operator",
          "type": "address"
        }
      ],
      "name": "OperatorUpdated",
      "type": "event"
    },
    {
      "anonymous": false,
      "inputs": [
        {
          "indexed": false,
          "internalType": "address",
          "name": "staker",
          "type": "address"
        },
        {
          "indexed": false,
          "internalType": "enum TokenManager.Tokens",
          "name": "tokenID",
          "type": "uint8"
        },
        {
          "indexed": false,
          "internalType": "uint256",
          "name": "ratio",
          "type": "uint256"
        },
        {
          "indexed": false,
          "internalType": "enum Griefing.RatioType",
          "name": "ratioType",
          "type": "uint8"
        }
      ],
      "name": "RatioSet",
      "type": "event"
    },
    {
      "anonymous": false,
      "inputs": [
        {
          "indexed": false,
          "internalType": "enum TokenManager.Tokens",
          "name": "tokenID",
          "type": "uint8"
        },
        {
          "indexed": false,
          "internalType": "address",
          "name": "staker",
          "type": "address"
        },
        {
          "indexed": false,
          "internalType": "uint256",
          "name": "amount",
          "type": "uint256"
        }
      ],
      "name": "StakeBurned",
      "type": "event"
    },
    {
      "constant": true,
      "inputs": [
        {
          "internalType": "uint256",
          "name": "ratio",
          "type": "uint256"
        },
        {
          "internalType": "uint256",
          "name": "punishment",
          "type": "uint256"
        },
        {
          "internalType": "enum Griefing.RatioType",
          "name": "ratioType",
          "type": "uint8"
        }
      ],
      "name": "getCost",
      "outputs": [
        {
          "internalType": "uint256",
          "name": "cost",
          "type": "uint256"
        }
      ],
      "payable": false,
      "stateMutability": "pure",
      "type": "function"
    },
    {
      "constant": true,
      "inputs": [],
      "name": "getCountdownStatus",
      "outputs": [
        {
          "internalType": "enum Countdown.CountdownStatus",
          "name": "status",
          "type": "uint8"
        }
      ],
      "payable": false,
      "stateMutability": "view",
      "type": "function"
    },
    {
      "constant": true,
      "inputs": [],
      "name": "getCreator",
      "outputs": [
        {
          "internalType": "address",
          "name": "creator",
          "type": "address"
        }
      ],
      "payable": false,
      "stateMutability": "view",
      "type": "function"
    },
    {
      "constant": true,
      "inputs": [],
      "name": "getDeadline",
      "outputs": [
        {
          "internalType": "uint256",
          "name": "deadline",
          "type": "uint256"
        }
      ],
      "payable": false,
      "stateMutability": "view",
      "type": "function"
    },
    {
      "constant": true,
      "inputs": [],
      "name": "getDeadlineStatus",
      "outputs": [
        {
          "internalType": "enum Deadline.DeadlineStatus",
          "name": "status",
          "type": "uint8"
        }
      ],
      "payable": false,
      "stateMutability": "view",
      "type": "function"
    },
    {
      "constant": true,
      "inputs": [],
      "name": "getFactory",
      "outputs": [
        {
          "internalType": "address",
          "name": "factory",
          "type": "address"
        }
      ],
      "payable": false,
      "stateMutability": "view",
      "type": "function"
    },
    {
      "constant": true,
      "inputs": [],
      "name": "getLength",
      "outputs": [
        {
          "internalType": "uint256",
          "name": "length",
          "type": "uint256"
        }
      ],
      "payable": false,
      "stateMutability": "view",
      "type": "function"
    },
    {
      "constant": true,
      "inputs": [],
      "name": "getOperator",
      "outputs": [
        {
          "internalType": "address",
          "name": "operator",
          "type": "address"
        }
      ],
      "payable": false,
      "stateMutability": "view",
      "type": "function"
    },
    {
      "constant": true,
      "inputs": [
        {
          "internalType": "uint256",
          "name": "ratio",
          "type": "uint256"
        },
        {
          "internalType": "uint256",
          "name": "cost",
          "type": "uint256"
        },
        {
          "internalType": "enum Griefing.RatioType",
          "name": "ratioType",
          "type": "uint8"
        }
      ],
      "name": "getPunishment",
      "outputs": [
        {
          "internalType": "uint256",
          "name": "punishment",
          "type": "uint256"
        }
      ],
      "payable": false,
      "stateMutability": "pure",
      "type": "function"
    },
    {
      "constant": true,
      "inputs": [
        {
          "internalType": "address",
          "name": "staker",
          "type": "address"
        }
      ],
      "name": "getRatio",
      "outputs": [
        {
          "internalType": "uint256",
          "name": "ratio",
          "type": "uint256"
        },
        {
          "internalType": "enum Griefing.RatioType",
          "name": "ratioType",
          "type": "uint8"
        }
      ],
      "payable": false,
      "stateMutability": "view",
      "type": "function"
    },
    {
      "constant": true,
      "inputs": [],
      "name": "getTimeRemaining",
      "outputs": [
        {
          "internalType": "uint256",
          "name": "time",
          "type": "uint256"
        }
      ],
      "payable": false,
      "stateMutability": "view",
      "type": "function"
    },
    {
      "constant": false,
      "inputs": [
        {
          "internalType": "address",
          "name": "operator",
          "type": "address"
        },
        {
          "internalType": "address",
          "name": "staker",
          "type": "address"
        },
        {
          "internalType": "address",
          "name": "counterparty",
          "type": "address"
        },
        {
          "internalType": "enum TokenManager.Tokens",
          "name": "tokenID",
          "type": "uint8"
        },
        {
          "internalType": "uint256",
          "name": "ratio",
          "type": "uint256"
        },
        {
          "internalType": "enum Griefing.RatioType",
          "name": "ratioType",
          "type": "uint8"
        },
        {
          "internalType": "uint256",
          "name": "countdownLength",
          "type": "uint256"
        },
        {
          "internalType": "bytes",
          "name": "metadata",
          "type": "bytes"
        }
      ],
      "name": "initialize",
      "outputs": [],
      "payable": false,
      "stateMutability": "nonpayable",
      "type": "function"
    },
    {
      "constant": false,
      "inputs": [
        {
          "internalType": "bytes",
          "name": "metadata",
          "type": "bytes"
        }
      ],
      "name": "setMetadata",
      "outputs": [],
      "payable": false,
      "stateMutability": "nonpayable",
      "type": "function"
    },
    {
      "constant": false,
      "inputs": [
        {
          "internalType": "uint256",
          "name": "amountToAdd",
          "type": "uint256"
        }
      ],
      "name": "increaseStake",
      "outputs": [],
      "payable": false,
      "stateMutability": "nonpayable",
      "type": "function"
    },
    {
      "constant": false,
      "inputs": [
        {
          "internalType": "uint256",
          "name": "amountToAdd",
          "type": "uint256"
        }
      ],
      "name": "reward",
      "outputs": [],
      "payable": false,
      "stateMutability": "nonpayable",
      "type": "function"
    },
    {
      "constant": false,
      "inputs": [
        {
          "internalType": "uint256",
          "name": "punishment",
          "type": "uint256"
        },
        {
          "internalType": "bytes",
          "name": "message",
          "type": "bytes"
        }
      ],
      "name": "punish",
      "outputs": [
        {
          "internalType": "uint256",
          "name": "cost",
          "type": "uint256"
        }
      ],
      "payable": false,
      "stateMutability": "nonpayable",
      "type": "function"
    },
    {
      "constant": false,
      "inputs": [
        {
          "internalType": "uint256",
          "name": "amountToRelease",
          "type": "uint256"
        }
      ],
      "name": "releaseStake",
      "outputs": [],
      "payable": false,
      "stateMutability": "nonpayable",
      "type": "function"
    },
    {
      "constant": false,
      "inputs": [],
      "name": "startCountdown",
      "outputs": [
        {
          "internalType": "uint256",
          "name": "deadline",
          "type": "uint256"
        }
      ],
      "payable": false,
      "stateMutability": "nonpayable",
      "type": "function"
    },
    {
      "constant": false,
      "inputs": [
        {
          "internalType": "address",
          "name": "recipient",
          "type": "address"
        }
      ],
      "name": "retrieveStake",
      "outputs": [
        {
          "internalType": "uint256",
          "name": "amount",
          "type": "uint256"
        }
      ],
      "payable": false,
      "stateMutability": "nonpayable",
      "type": "function"
    },
    {
      "constant": false,
      "inputs": [
        {
          "internalType": "address",
          "name": "operator",
          "type": "address"
        }
      ],
      "name": "transferOperator",
      "outputs": [],
      "payable": false,
      "stateMutability": "nonpayable",
      "type": "function"
    },
    {
      "constant": false,
      "inputs": [],
      "name": "renounceOperator",
      "outputs": [],
      "payable": false,
      "stateMutability": "nonpayable",
      "type": "function"
    },
    {
      "constant": true,
      "inputs": [],
      "name": "getStaker",
      "outputs": [
        {
          "internalType": "address",
          "name": "staker",
          "type": "address"
        }
      ],
      "payable": false,
      "stateMutability": "view",
      "type": "function"
    },
    {
      "constant": true,
      "inputs": [],
      "name": "getCounterparty",
      "outputs": [
        {
          "internalType": "address",
          "name": "counterparty",
          "type": "address"
        }
      ],
      "payable": false,
      "stateMutability": "view",
      "type": "function"
    },
    {
      "constant": true,
      "inputs": [],
      "name": "getToken",
      "outputs": [
        {
          "internalType": "enum TokenManager.Tokens",
          "name": "tokenID",
          "type": "uint8"
        },
        {
          "internalType": "address",
          "name": "token",
          "type": "address"
        }
      ],
      "payable": false,
      "stateMutability": "view",
      "type": "function"
    },
    {
      "constant": true,
      "inputs": [],
      "name": "getStake",
      "outputs": [
        {
          "internalType": "uint256",
          "name": "stake",
          "type": "uint256"
        }
      ],
      "payable": false,
      "stateMutability": "view",
      "type": "function"
    },
    {
      "constant": true,
      "inputs": [],
      "name": "isStaked",
      "outputs": [
        {
          "internalType": "bool",
          "name": "validity",
          "type": "bool"
        }
      ],
      "payable": false,
      "stateMutability": "view",
      "type": "function"
    },
    {
      "constant": true,
      "inputs": [],
      "name": "getAgreementStatus",
      "outputs": [
        {
          "internalType": "enum CountdownGriefing.AgreementStatus",
          "name": "status",
          "type": "uint8"
        }
      ],
      "payable": false,
      "stateMutability": "view",
      "type": "function"
    }
  ],
  "bytecode": "0x608060405234801561001057600080fd5b50613e29806100206000396000f3fe608060405234801561001057600080fd5b50600436106101a95760003560e01c8063728fa494116100f9578063dac6270d11610097578063e7f43c6811610071578063e7f43c6814610897578063ee57e36f146108e1578063eedad66b1461099c578063fc0e3d90146109ca576101a9565b8063dac6270d1461082b578063de2229fe14610849578063e3323aba14610875576101a9565b806388cc58e4116100d357806388cc58e4146106bc57806390bfe0bf14610706578063a9fb763c146107df578063be1c766b1461080d576101a9565b8063728fa494146105bb57806372b45a5514610605578063754b27071461064f576101a9565b80632ab6f8db11610166578063465b414e11610140578063465b414e146104cd5780635baeb806146105265780635e5365c11461057f5780635f8d96de1461059d576101a9565b80632ab6f8db1461043d57806341ce28781461044757806345f544851461049f576101a9565b80630778217a146101ae5780630ee2cb10146102f85780631723537d1461034257806319fbb48e1461036e57806321df0da71461039a57806329605e77146103f9575b600080fd5b6102f660048036036101008110156101c557600080fd5b81019080803573ffffffffffffffffffffffffffffffffffffffff169060200190929190803573ffffffffffffffffffffffffffffffffffffffff169060200190929190803573ffffffffffffffffffffffffffffffffffffffff169060200190929190803560ff16906020019092919080359060200190929190803560ff169060200190929190803590602001909291908035906020019064010000000081111561027057600080fd5b82018360208201111561028257600080fd5b803590602001918460018302840111640100000000831117156102a457600080fd5b91908080601f016020809104026020016040519081016040528093929190818152602001838380828437600081840152601f19601f8201169050808301925050505050505091929192905050506109e8565b005b610300610cfb565b604051808273ffffffffffffffffffffffffffffffffffffffff1673ffffffffffffffffffffffffffffffffffffffff16815260200191505060405180910390f35b61034a610ddc565b6040518082600281111561035a57fe5b60ff16815260200191505060405180910390f35b610376610e12565b6040518082600381111561038657fe5b60ff16815260200191505060405180910390f35b6103a2610e8b565b604051808360028111156103b257fe5b60ff1681526020018273ffffffffffffffffffffffffffffffffffffffff1673ffffffffffffffffffffffffffffffffffffffff1681526020019250505060405180910390f35b61043b6004803603602081101561040f57600080fd5b81019080803573ffffffffffffffffffffffffffffffffffffffff169060200190929190505050610ed0565b005b610445610f57565b005b6104896004803603602081101561045d57600080fd5b81019080803573ffffffffffffffffffffffffffffffffffffffff169060200190929190505050610fdc565b6040518082815260200191505060405180910390f35b6104cb600480360360208110156104b557600080fd5b8101908080359060200190929190505050611128565b005b610510600480360360608110156104e357600080fd5b810190808035906020019092919080359060200190929190803560ff1690602001909291905050506111f6565b6040518082815260200191505060405180910390f35b6105696004803603606081101561053c57600080fd5b810190808035906020019092919080359060200190929190803560ff1690602001909291905050506112e1565b6040518082815260200191505060405180910390f35b610587611414565b6040518082815260200191505060405180910390f35b6105a5611528565b6040518082815260200191505060405180910390f35b6105c3611531565b604051808273ffffffffffffffffffffffffffffffffffffffff1673ffffffffffffffffffffffffffffffffffffffff16815260200191505060405180910390f35b61060d61155e565b604051808273ffffffffffffffffffffffffffffffffffffffff1673ffffffffffffffffffffffffffffffffffffffff16815260200191505060405180910390f35b6106916004803603602081101561066557600080fd5b81019080803573ffffffffffffffffffffffffffffffffffffffff16906020019092919050505061158b565b604051808381526020018260028111156106a757fe5b60ff1681526020019250505060405180910390f35b6106c461162a565b604051808273ffffffffffffffffffffffffffffffffffffffff1673ffffffffffffffffffffffffffffffffffffffff16815260200191505060405180910390f35b6107c96004803603604081101561071c57600080fd5b81019080803590602001909291908035906020019064010000000081111561074357600080fd5b82018360208201111561075557600080fd5b8035906020019184600183028401116401000000008311171561077757600080fd5b91908080601f016020809104026020016040519081016040528093929190818152602001838380828437600081840152601f19601f820116905080830192505050505050509192919290505050611654565b6040518082815260200191505060405180910390f35b61080b600480360360208110156107f557600080fd5b8101908080359060200190929190505050611795565b005b6108156118de565b6040518082815260200191505060405180910390f35b6108336118e8565b6040518082815260200191505060405180910390f35b610851611918565b6040518082600281111561086157fe5b60ff16815260200191505060405180910390f35b61087d611948565b604051808215151515815260200191505060405180910390f35b61089f61195f565b604051808273ffffffffffffffffffffffffffffffffffffffff1673ffffffffffffffffffffffffffffffffffffffff16815260200191505060405180910390f35b61099a600480360360208110156108f757600080fd5b810190808035906020019064010000000081111561091457600080fd5b82018360208201111561092657600080fd5b8035906020019184600183028401116401000000008311171561094857600080fd5b91908080601f016020809104026020016040519081016040528093929190818152602001838380828437600081840152601f19601f820116905080830192505050505050509192919290505050611989565b005b6109c8600480360360208110156109b257600080fd5b8101908080359060200190929190505050611a10565b005b6109d2611b59565b6040518082815260200191505060405180910390f35b33600560006101000a81548173ffffffffffffffffffffffffffffffffffffffff021916908373ffffffffffffffffffffffffffffffffffffffff1602179055506000303b905060008163ffffffff1614610a8e576040517f08c379a000000000000000000000000000000000000000000000000000000000815260040180806020018281038252602a815260200180613d7e602a913960400191505060405180910390fd5b87600660000160006101000a81548173ffffffffffffffffffffffffffffffffffffffff021916908373ffffffffffffffffffffffffffffffffffffffff16021790555086600660010160006101000a81548173ffffffffffffffffffffffffffffffffffffffff021916908373ffffffffffffffffffffffffffffffffffffffff160217905550600073ffffffffffffffffffffffffffffffffffffffff168973ffffffffffffffffffffffffffffffffffffffff1614610b5457610b5389611bbc565b5b610b6088878787611dca565b610b6983612089565b6000825114610b7c57610b7b826120ca565b5b7f878674c93796807586e02f6cd04199c2f583519ae7050b1e98d002b620a870d98989898989898989604051808973ffffffffffffffffffffffffffffffffffffffff1673ffffffffffffffffffffffffffffffffffffffff1681526020018873ffffffffffffffffffffffffffffffffffffffff1673ffffffffffffffffffffffffffffffffffffffff1681526020018773ffffffffffffffffffffffffffffffffffffffff1673ffffffffffffffffffffffffffffffffffffffff168152602001866002811115610c4b57fe5b60ff168152602001858152602001846002811115610c6557fe5b60ff16815260200183815260200180602001828103825283818151815260200191508051906020019080838360005b83811015610caf578082015181840152602081019050610c94565b50505050905090810190601f168015610cdc5780820380516001836020036101000a031916815260200191505b50995050505050505050505060405180910390a1505050505050505050565b6000600560009054906101000a900473ffffffffffffffffffffffffffffffffffffffff1673ffffffffffffffffffffffffffffffffffffffff16636bf71982306040518263ffffffff1660e01b8152600401808273ffffffffffffffffffffffffffffffffffffffff1673ffffffffffffffffffffffffffffffffffffffff16815260200191505060206040518083038186803b158015610d9c57600080fd5b505afa158015610db0573d6000803e3d6000fd5b505050506040513d6020811015610dc657600080fd5b8101908080519060200190929190505050905090565b6000610de6612169565b15610df45760029050610e0f565b610dfc612190565b15610e0a5760019050610e0f565b600090505b90565b6000806001541415610e275760009050610e88565b60006002811115610e3457fe5b610e3c611918565b6002811115610e4757fe5b1415610e565760019050610e88565b600280811115610e6257fe5b610e6a611918565b6002811115610e7557fe5b14610e835760029050610e88565b600390505b90565b600080610ebc600660000160009054906101000a900473ffffffffffffffffffffffffffffffffffffffff166121b8565b915081610ec883612211565b915091509091565b610ed9336122ef565b610f4b576040517f08c379a000000000000000000000000000000000000000000000000000000000815260040180806020018281038252600d8152602001807f6f6e6c79206f70657261746f720000000000000000000000000000000000000081525060200191505060405180910390fd5b610f5481612349565b50565b610f60336122ef565b610fd2576040517f08c379a000000000000000000000000000000000000000000000000000000000815260040180806020018281038252600d8152602001807f6f6e6c79206f70657261746f720000000000000000000000000000000000000081525060200191505060405180910390fd5b610fda612558565b565b6000610fe7336126c5565b80610ff75750610ff6336122ef565b5b611069576040517f08c379a00000000000000000000000000000000000000000000000000000000081526004018080602001828103825260178152602001807f6f6e6c79207374616b6572206f72206f70657261746f7200000000000000000081525060200191505060405180910390fd5b611071612704565b6110e3576040517f08c379a00000000000000000000000000000000000000000000000000000000081526004018080602001828103825260138152602001807f646561646c696e65206e6f74207061737365640000000000000000000000000081525060200191505060405180910390fd5b6000600660000160009054906101000a900473ffffffffffffffffffffffffffffffffffffffff169050611120611119826121b8565b828561272b565b915050919050565b61113133612752565b806111415750611140336122ef565b5b6111b3576040517f08c379a000000000000000000000000000000000000000000000000000000000815260040180806020018281038252601d8152602001807f6f6e6c7920636f756e7465727061727479206f72206f70657261746f7200000081525060200191505060405180910390fd5b6000600660000160009054906101000a900473ffffffffffffffffffffffffffffffffffffffff1690506111f16111e9826121b8565b828385612791565b505050565b600060028081111561120457fe5b82600281111561121057fe5b1415611241576012600a0a61123261122c856012600a0a6127b6565b8661283c565b8161123957fe5b0490506112da565b6001600281111561124e57fe5b82600281111561125a57fe5b141561126957600090506112da565b6000600281111561127657fe5b82600281111561128257fe5b14156112d9576040517f08c379a0000000000000000000000000000000000000000000000000000000008152600401808060200182810382526021815260200180613da86021913960400191505060405180910390fd5b5b9392505050565b60006002808111156112ef57fe5b8260028111156112fb57fe5b141561132c576012600a0a61131d611317856012600a0a6127b6565b86612874565b8161132457fe5b04905061140d565b6001600281111561133957fe5b82600281111561134557fe5b141561139c576040517f08c379a0000000000000000000000000000000000000000000000000000000008152600401808060200182810382526021815260200180613d3c6021913960400191505060405180910390fd5b600060028111156113a957fe5b8260028111156113b557fe5b141561140c576040517f08c379a0000000000000000000000000000000000000000000000000000000008152600401808060200182810382526021815260200180613da86021913960400191505060405180910390fd5b5b9392505050565b600061141f336126c5565b8061142f575061142e336122ef565b5b6114a1576040517f08c379a00000000000000000000000000000000000000000000000000000000081526004018080602001828103825260178152602001807f6f6e6c79207374616b6572206f72206f70657261746f7200000000000000000081525060200191505060405180910390fd5b6114a96128a8565b61151b576040517f08c379a00000000000000000000000000000000000000000000000000000000081526004018080602001828103825260148152602001807f646561646c696e6520616c72656164792073657400000000000000000000000081525060200191505060405180910390fd5b6115236128cf565b905090565b60008054905090565b6000600660010160009054906101000a900473ffffffffffffffffffffffffffffffffffffffff16905090565b6000600660000160009054906101000a900473ffffffffffffffffffffffffffffffffffffffff16905090565b600080600360008473ffffffffffffffffffffffffffffffffffffffff1673ffffffffffffffffffffffffffffffffffffffff16815260200190815260200160002060000154600360008573ffffffffffffffffffffffffffffffffffffffff1673ffffffffffffffffffffffffffffffffffffffff16815260200190815260200160002060010160009054906101000a900460ff1691509150915091565b6000600560009054906101000a900473ffffffffffffffffffffffffffffffffffffffff16905090565b600061165f33612752565b8061166f575061166e336122ef565b5b6116e1576040517f08c379a000000000000000000000000000000000000000000000000000000000815260040180806020018281038252601d8152602001807f6f6e6c7920636f756e7465727061727479206f72206f70657261746f7200000081525060200191505060405180910390fd5b6116e9612704565b1561175c576040517f08c379a000000000000000000000000000000000000000000000000000000000815260040180806020018281038252600f8152602001807f61677265656d656e7420656e646564000000000000000000000000000000000081525060200191505060405180910390fd5b61178d33600660000160009054906101000a900473ffffffffffffffffffffffffffffffffffffffff1685856128f7565b905092915050565b61179e33612752565b806117ae57506117ad336122ef565b5b611820576040517f08c379a000000000000000000000000000000000000000000000000000000000815260040180806020018281038252601d8152602001807f6f6e6c7920636f756e7465727061727479206f72206f70657261746f7200000081525060200191505060405180910390fd5b611828612704565b1561189b576040517f08c379a000000000000000000000000000000000000000000000000000000000815260040180806020018281038252600f8152602001807f61677265656d656e7420656e646564000000000000000000000000000000000081525060200191505060405180910390fd5b6000600660000160009054906101000a900473ffffffffffffffffffffffffffffffffffffffff1690506118d96118d1826121b8565b823385612bba565b505050565b6000600154905090565b60004260005411156119105761190942600054612be090919063ffffffff16565b9050611915565b600090505b90565b600080600054141561192d5760009050611945565b4260005411156119405760019050611945565b600290505b90565b600080611953611b59565b90506000811191505090565b6000600460009054906101000a900473ffffffffffffffffffffffffffffffffffffffff16905090565b611992336122ef565b611a04576040517f08c379a000000000000000000000000000000000000000000000000000000000815260040180806020018281038252600d8152602001807f6f6e6c79206f70657261746f720000000000000000000000000000000000000081525060200191505060405180910390fd5b611a0d816120ca565b50565b611a19336126c5565b80611a295750611a28336122ef565b5b611a9b576040517f08c379a00000000000000000000000000000000000000000000000000000000081526004018080602001828103825260178152602001807f6f6e6c79207374616b6572206f72206f70657261746f7200000000000000000081525060200191505060405180910390fd5b611aa3612704565b15611b16576040517f08c379a000000000000000000000000000000000000000000000000000000000815260040180806020018281038252600f8152602001807f61677265656d656e7420656e646564000000000000000000000000000000000081525060200191505060405180910390fd5b6000600660000160009054906101000a900473ffffffffffffffffffffffffffffffffffffffff169050611b54611b4c826121b8565b823385612bba565b505050565b6000611bb7611b8c600660000160009054906101000a900473ffffffffffffffffffffffffffffffffffffffff166121b8565b600660000160009054906101000a900473ffffffffffffffffffffffffffffffffffffffff16612c69565b905090565b600073ffffffffffffffffffffffffffffffffffffffff16600460009054906101000a900473ffffffffffffffffffffffffffffffffffffffff1673ffffffffffffffffffffffffffffffffffffffff1614611c80576040517f08c379a00000000000000000000000000000000000000000000000000000000081526004018080602001828103825260148152602001807f6f70657261746f7220616c72656164792073657400000000000000000000000081525060200191505060405180910390fd5b600073ffffffffffffffffffffffffffffffffffffffff168173ffffffffffffffffffffffffffffffffffffffff161415611d23576040517f08c379a00000000000000000000000000000000000000000000000000000000081526004018080602001828103825260208152602001807f63616e6e6f7420736574206f70657261746f7220746f2061646472657373203081525060200191505060405180910390fd5b80600460006101000a81548173ffffffffffffffffffffffffffffffffffffffff021916908373ffffffffffffffffffffffffffffffffffffffff1602179055507fb3b3f5f64ab192e4b5fefde1f51ce9733bbdcf831951543b325aebd49cc27ec481604051808273ffffffffffffffffffffffffffffffffffffffff1673ffffffffffffffffffffffffffffffffffffffff16815260200191505060405180910390a150565b60006002811115611dd757fe5b816002811115611de357fe5b1480611e05575060016002811115611df757fe5b816002811115611e0357fe5b145b15611e645760008214611e63576040517f08c379a000000000000000000000000000000000000000000000000000000000815260040180806020018281038252602c815260200180613dc9602c913960400191505060405180910390fd5b5b611e6d83612ccf565b611edf576040517f08c379a000000000000000000000000000000000000000000000000000000000815260040180806020018281038252600f8152602001807f696e76616c696420746f6b656e4944000000000000000000000000000000000081525060200191505060405180910390fd5b82600360008673ffffffffffffffffffffffffffffffffffffffff1673ffffffffffffffffffffffffffffffffffffffff16815260200190815260200160002060010160016101000a81548160ff02191690836002811115611f3d57fe5b021790555081600360008673ffffffffffffffffffffffffffffffffffffffff1673ffffffffffffffffffffffffffffffffffffffff1681526020019081526020016000206000018190555080600360008673ffffffffffffffffffffffffffffffffffffffff1673ffffffffffffffffffffffffffffffffffffffff16815260200190815260200160002060010160006101000a81548160ff02191690836002811115611fe757fe5b02179055507f678cee39e611e507ca0ae7d4e7c0e52c9858566e71c430de3ea311893e66554784848484604051808573ffffffffffffffffffffffffffffffffffffffff1673ffffffffffffffffffffffffffffffffffffffff16815260200184600281111561205357fe5b60ff16815260200183815260200182600281111561206d57fe5b60ff16815260200194505050505060405180910390a150505050565b806001819055507f7caceb1091bbaa84d09ab116a1fd72387eaab8a33d70fc39168b9b75686ee32c816040518082815260200191505060405180910390a150565b7fbb39ebb37e60fb5d606ffdb749d2336e56b88e6c88c4bd6513b308f643186eed816040518080602001828103825283818151815260200191508051906020019080838360005b8381101561212c578082015181840152602081019050612111565b50505050905090810190601f1680156121595780820380516001836020036101000a031916815260200191505b509250505060405180910390a150565b600060038081111561217757fe5b61217f610e12565b600381111561218a57fe5b14905090565b60006002600381111561219f57fe5b6121a7610e12565b60038111156121b257fe5b14905090565b6000600360008373ffffffffffffffffffffffffffffffffffffffff1673ffffffffffffffffffffffffffffffffffffffff16815260200190815260200160002060010160019054906101000a900460ff169050919050565b600061221c82612ccf565b61228e576040517f08c379a000000000000000000000000000000000000000000000000000000000815260040180806020018281038252600d8152602001807f696e76616c696420746f6b656e0000000000000000000000000000000000000081525060200191505060405180910390fd5b60028081111561229a57fe5b8260028111156122a657fe5b14156122bb576122b4612d12565b90506122ea565b600160028111156122c857fe5b8260028111156122d457fe5b14156122e9576122e2612d2e565b90506122ea565b5b919050565b6000600460009054906101000a900473ffffffffffffffffffffffffffffffffffffffff1673ffffffffffffffffffffffffffffffffffffffff168273ffffffffffffffffffffffffffffffffffffffff16149050919050565b600073ffffffffffffffffffffffffffffffffffffffff16600460009054906101000a900473ffffffffffffffffffffffffffffffffffffffff1673ffffffffffffffffffffffffffffffffffffffff16141561240e576040517f08c379a00000000000000000000000000000000000000000000000000000000081526004018080602001828103825260168152602001807f6f6e6c79207768656e206f70657261746f72207365740000000000000000000081525060200191505060405180910390fd5b600073ffffffffffffffffffffffffffffffffffffffff168173ffffffffffffffffffffffffffffffffffffffff1614156124b1576040517f08c379a00000000000000000000000000000000000000000000000000000000081526004018080602001828103825260208152602001807f63616e6e6f7420736574206f70657261746f7220746f2061646472657373203081525060200191505060405180910390fd5b80600460006101000a81548173ffffffffffffffffffffffffffffffffffffffff021916908373ffffffffffffffffffffffffffffffffffffffff1602179055507fb3b3f5f64ab192e4b5fefde1f51ce9733bbdcf831951543b325aebd49cc27ec481604051808273ffffffffffffffffffffffffffffffffffffffff1673ffffffffffffffffffffffffffffffffffffffff16815260200191505060405180910390a150565b600073ffffffffffffffffffffffffffffffffffffffff16600460009054906101000a900473ffffffffffffffffffffffffffffffffffffffff1673ffffffffffffffffffffffffffffffffffffffff16141561261d576040517f08c379a00000000000000000000000000000000000000000000000000000000081526004018080602001828103825260168152602001807f6f6e6c79207768656e206f70657261746f72207365740000000000000000000081525060200191505060405180910390fd5b6000600460006101000a81548173ffffffffffffffffffffffffffffffffffffffff021916908373ffffffffffffffffffffffffffffffffffffffff1602179055507fb3b3f5f64ab192e4b5fefde1f51ce9733bbdcf831951543b325aebd49cc27ec46000604051808273ffffffffffffffffffffffffffffffffffffffff1673ffffffffffffffffffffffffffffffffffffffff16815260200191505060405180910390a1565b60006126cf61155e565b73ffffffffffffffffffffffffffffffffffffffff168273ffffffffffffffffffffffffffffffffffffffff16149050919050565b600060028081111561271257fe5b61271a610ddc565b600281111561272557fe5b14905090565b6000806127388585612c69565b905061274685858584612791565b50809150509392505050565b600061275c611531565b73ffffffffffffffffffffffffffffffffffffffff168273ffffffffffffffffffffffffffffffffffffffff16149050919050565b600061279e858584612d4a565b90506127ab858484612f2a565b809050949350505050565b6000808314156127c95760009050612836565b60008284029050828482816127da57fe5b0414612831576040517f08c379a0000000000000000000000000000000000000000000000000000000008152600401808060200182810382526021815260200180613d5d6021913960400191505060405180910390fd5b809150505b92915050565b60006012600a0a61286461285085856127b6565b60026012600a0a8161285e57fe5b0461306b565b8161286b57fe5b04905092915050565b600081612898612888856012600a0a6127b6565b6002858161289257fe5b0461306b565b8161289f57fe5b04905092915050565b60008060028111156128b657fe5b6128be610ddc565b60028111156128c957fe5b14905090565b60006128e64260015461306b90919063ffffffff16565b90506128f1816130f3565b80905090565b600080600360008673ffffffffffffffffffffffffffffffffffffffff1673ffffffffffffffffffffffffffffffffffffffff1681526020019081526020016000206000015490506000600360008773ffffffffffffffffffffffffffffffffffffffff1673ffffffffffffffffffffffffffffffffffffffff16815260200190815260200160002060010160009054906101000a900460ff1690506000600360008873ffffffffffffffffffffffffffffffffffffffff1673ffffffffffffffffffffffffffffffffffffffff16815260200190815260200160002060010160019054906101000a900460ff169050600060028111156129f457fe5b826002811115612a0057fe5b1415612a74576040517f08c379a00000000000000000000000000000000000000000000000000000000081526004018080602001828103825260158152602001807f6e6f2070756e6973686d656e7420616c6c6f776564000000000000000000000081525060200191505060405180910390fd5b612a7f8387846111f6565b9350612a8c818986613134565b612a97818888613203565b507fca93c648a4546f2ae486b9140f0082ced75a2664a663c8882b8b3545cddfeeb18888888789604051808673ffffffffffffffffffffffffffffffffffffffff1673ffffffffffffffffffffffffffffffffffffffff1681526020018573ffffffffffffffffffffffffffffffffffffffff1673ffffffffffffffffffffffffffffffffffffffff16815260200184815260200183815260200180602001828103825283818151815260200191508051906020019080838360005b83811015612b6e578082015181840152602081019050612b53565b50505050905090810190601f168015612b9b5780820380516001836020036101000a031916815260200191505b50965050505050505060405180910390a1839350505050949350505050565b6000612bc78585846132a9565b9050612bd58584308561340e565b809050949350505050565b600082821115612c58576040517f08c379a000000000000000000000000000000000000000000000000000000000815260040180806020018281038252601e8152602001807f536166654d6174683a207375627472616374696f6e206f766572666c6f77000081525060200191505060405180910390fd5b600082840390508091505092915050565b600060026000846002811115612c7b57fe5b815260200190815260200160002060008373ffffffffffffffffffffffffffffffffffffffff1673ffffffffffffffffffffffffffffffffffffffff16815260200190815260200160002054905092915050565b600060016002811115612cde57fe5b826002811115612cea57fe5b1480612d0b5750600280811115612cfd57fe5b826002811115612d0957fe5b145b9050919050565b6000736b175474e89094c44da98b954eedeac495271d0f905090565b6000731776e1f26f98b1a5df9cd347953a26dd3cb46671905090565b60008060026000866002811115612d5d57fe5b815260200190815260200160002060008573ffffffffffffffffffffffffffffffffffffffff1673ffffffffffffffffffffffffffffffffffffffff16815260200190815260200160002054905082811015612e21576040517f08c379a000000000000000000000000000000000000000000000000000000000815260040180806020018281038252601e8152602001807f696e73756666696369656e74206465706f73697420746f2072656d6f7665000081525060200191505060405180910390fd5b612e348382612be090919063ffffffff16565b91508160026000876002811115612e4757fe5b815260200190815260200160002060008673ffffffffffffffffffffffffffffffffffffffff1673ffffffffffffffffffffffffffffffffffffffff168152602001908152602001600020819055507f9060f8ffc7acd8270abf2337023e6377669ca44d5b2a23f3513a29380940f3578585858560405180856002811115612ecb57fe5b60ff1681526020018473ffffffffffffffffffffffffffffffffffffffff1673ffffffffffffffffffffffffffffffffffffffff16815260200183815260200182815260200194505050505060405180910390a1819150509392505050565b612f3383612211565b73ffffffffffffffffffffffffffffffffffffffff1663a9059cbb83836040518363ffffffff1660e01b8152600401808373ffffffffffffffffffffffffffffffffffffffff1673ffffffffffffffffffffffffffffffffffffffff16815260200182815260200192505050602060405180830381600087803b158015612fb957600080fd5b505af1158015612fcd573d6000803e3d6000fd5b505050506040513d6020811015612fe357600080fd5b8101908080519060200190929190505050613066576040517f08c379a00000000000000000000000000000000000000000000000000000000081526004018080602001828103825260158152602001807f746f6b656e207472616e73666572206661696c6564000000000000000000000081525060200191505060405180910390fd5b505050565b6000808284019050838110156130e9576040517f08c379a000000000000000000000000000000000000000000000000000000000815260040180806020018281038252601b8152602001807f536166654d6174683a206164646974696f6e206f766572666c6f77000000000081525060200191505060405180910390fd5b8091505092915050565b806000819055507f337b880688eb06df8adb77036a6c8def1da2b520bc901c04b3a5a23f9ae13039816040518082815260200191505060405180910390a150565b60028081111561314057fe5b83600281111561314c57fe5b14156131615761315c8282613584565b6131fe565b6001600281111561316e57fe5b83600281111561317a57fe5b141561318f5761318a828261369c565b6131fd565b6040517f08c379a000000000000000000000000000000000000000000000000000000000815260040180806020018281038252600f8152602001807f696e76616c696420746f6b656e4944000000000000000000000000000000000081525060200191505060405180910390fd5b5b505050565b600080613211858585612d4a565b905061321d85846137e8565b7fdb3ea61f51d905963ea248d3208f32d619158d110030556d90aed12c46735c6b8585856040518084600281111561325157fe5b60ff1681526020018373ffffffffffffffffffffffffffffffffffffffff1673ffffffffffffffffffffffffffffffffffffffff168152602001828152602001935050505060405180910390a1809150509392505050565b600061331982600260008760028111156132bf57fe5b815260200190815260200160002060008673ffffffffffffffffffffffffffffffffffffffff1673ffffffffffffffffffffffffffffffffffffffff1681526020019081526020016000205461306b90919063ffffffff16565b9050806002600086600281111561332c57fe5b815260200190815260200160002060008573ffffffffffffffffffffffffffffffffffffffff1673ffffffffffffffffffffffffffffffffffffffff168152602001908152602001600020819055507ffe2caf3897ec3e02a1d458d232d7c62c17809d25dbfe65864ce842162d6c217c84848484604051808560028111156133b057fe5b60ff1681526020018473ffffffffffffffffffffffffffffffffffffffff1673ffffffffffffffffffffffffffffffffffffffff16815260200183815260200182815260200194505050505060405180910390a18090509392505050565b61341784612211565b73ffffffffffffffffffffffffffffffffffffffff166323b872dd8484846040518463ffffffff1660e01b8152600401808473ffffffffffffffffffffffffffffffffffffffff1673ffffffffffffffffffffffffffffffffffffffff1681526020018373ffffffffffffffffffffffffffffffffffffffff1673ffffffffffffffffffffffffffffffffffffffff1681526020018281526020019350505050602060405180830381600087803b1580156134d157600080fd5b505af11580156134e5573d6000803e3d6000fd5b505050506040513d60208110156134fb57600080fd5b810190808051906020019092919050505061357e576040517f08c379a00000000000000000000000000000000000000000000000000000000081526004018080602001828103825260158152602001807f746f6b656e207472616e73666572206661696c6564000000000000000000000081525060200191505060405180910390fd5b50505050565b736b175474e89094c44da98b954eedeac495271d0f73ffffffffffffffffffffffffffffffffffffffff166323b872dd8330846040518463ffffffff1660e01b8152600401808473ffffffffffffffffffffffffffffffffffffffff1673ffffffffffffffffffffffffffffffffffffffff1681526020018373ffffffffffffffffffffffffffffffffffffffff1673ffffffffffffffffffffffffffffffffffffffff1681526020018281526020019350505050602060405180830381600087803b15801561365357600080fd5b505af1158015613667573d6000803e3d6000fd5b505050506040513d602081101561367d57600080fd5b810190808051906020019092919050505050613698816138b4565b5050565b731776e1f26f98b1a5df9cd347953a26dd3cb4667173ffffffffffffffffffffffffffffffffffffffff16637c8d56b883836040518363ffffffff1660e01b8152600401808373ffffffffffffffffffffffffffffffffffffffff1673ffffffffffffffffffffffffffffffffffffffff16815260200182815260200192505050602060405180830381600087803b15801561373757600080fd5b505af115801561374b573d6000803e3d6000fd5b505050506040513d602081101561376157600080fd5b81019080805190602001909291905050506137e4576040517f08c379a00000000000000000000000000000000000000000000000000000000081526004018080602001828103825260138152602001807f6e6d72206275726e46726f6d206661696c65640000000000000000000000000081525060200191505060405180910390fd5b5050565b6002808111156137f457fe5b82600281111561380057fe5b14156138145761380f816138b4565b6138b0565b6001600281111561382157fe5b82600281111561382d57fe5b14156138415761383c81613ac3565b6138af565b6040517f08c379a000000000000000000000000000000000000000000000000000000000815260040180806020018281038252600f8152602001807f696e76616c696420746f6b656e4944000000000000000000000000000000000081525060200191505060405180910390fd5b5b5050565b736b175474e89094c44da98b954eedeac495271d0f73ffffffffffffffffffffffffffffffffffffffff1663095ea7b3732a1530c4c41db0b0b2bb646cb5eb1a67b7158667836040518363ffffffff1660e01b8152600401808373ffffffffffffffffffffffffffffffffffffffff1673ffffffffffffffffffffffffffffffffffffffff16815260200182815260200192505050602060405180830381600087803b15801561396357600080fd5b505af1158015613977573d6000803e3d6000fd5b505050506040513d602081101561398d57600080fd5b81019080805190602001909291905050505060008190506000806139b083613bda565b9150915060004290506000732a1530c4c41db0b0b2bb646cb5eb1a67b715866773ffffffffffffffffffffffffffffffffffffffff1663ddf7e1a7868686866139f7612d2e565b6040518663ffffffff1660e01b8152600401808681526020018581526020018481526020018381526020018273ffffffffffffffffffffffffffffffffffffffff1673ffffffffffffffffffffffffffffffffffffffff16815260200195505050505050602060405180830381600087803b158015613a7557600080fd5b505af1158015613a89573d6000803e3d6000fd5b505050506040513d6020811015613a9f57600080fd5b81019080805190602001909291905050509050613abb81613ac3565b505050505050565b731776e1f26f98b1a5df9cd347953a26dd3cb4667173ffffffffffffffffffffffffffffffffffffffff1663a0712d68826040518263ffffffff1660e01b815260040180828152602001915050602060405180830381600087803b158015613b2a57600080fd5b505af1158015613b3e573d6000803e3d6000fd5b505050506040513d6020811015613b5457600080fd5b8101908080519060200190929190505050613bd7576040517f08c379a000000000000000000000000000000000000000000000000000000000815260040180806020018281038252600f8152602001807f6e6d72206275726e206661696c6564000000000000000000000000000000000081525060200191505060405180910390fd5b50565b600080732a1530c4c41db0b0b2bb646cb5eb1a67b715866773ffffffffffffffffffffffffffffffffffffffff166395b68fe7846040518263ffffffff1660e01b81526004018082815260200191505060206040518083038186803b158015613c4257600080fd5b505afa158015613c56573d6000803e3d6000fd5b505050506040513d6020811015613c6c57600080fd5b81019080805190602001909291905050509050613c87613d1f565b73ffffffffffffffffffffffffffffffffffffffff1663cd7724c3826040518263ffffffff1660e01b81526004018082815260200191505060206040518083038186803b158015613cd757600080fd5b505afa158015613ceb573d6000803e3d6000fd5b505050506040513d6020811015613d0157600080fd5b81019080805190602001909291905050509150818191509150915091565b6000732bf5a5ba29e60682fc56b2fcf9ce07bef4f6196f90509056fe726174696f547970652063616e6e6f7420626520526174696f547970652e496e66536166654d6174683a206d756c7469706c69636174696f6e206f766572666c6f776d7573742062652063616c6c65642077697468696e20636f6e747261637420636f6e7374727563746f72726174696f547970652063616e6e6f7420626520526174696f547970652e4e614e726174696f206d7573742062652030207768656e20726174696f54797065206973204e614e206f7220496e66a265627a7a72315820182907222f755834c22eb4d71d4ad28c4ad0d6b9e809538e8afab72472b7084b64736f6c634300050d0032",
  "source": "pragma solidity ^0.5.13;\n\nimport \"../helpers/openzeppelin-solidity/math/SafeMath.sol\";\nimport \"../modules/Countdown.sol\";\nimport \"../modules/Griefing.sol\";\nimport \"../modules/EventMetadata.sol\";\nimport \"../modules/Operated.sol\";\nimport \"../modules/Template.sol\";\n\n/// @title CountdownGriefing\n/// @author Stephane Gosselin (@thegostep) for Numerai Inc\n/// @dev Security contact: security@numer.ai\n/// @dev Version: 1.3.0\n/// @dev State Machine: https://github.com/erasureprotocol/erasure-protocol/blob/v1.3.0/docs/state-machines/agreements/CountdownGriefing.png\n/// @notice This agreement template allows a staker to grant permission to a counterparty to punish, reward, or release their stake until the countdown is completed.\n///         A new instance is initialized by the factory using the `initData` received. See the `initialize()` function for details on initialization parameters.\n///         Notable features:\n///             - The staker can increase the stake at any time before the end of the countdown.\n///             - The counterparty can increase, release, or punish the stake at any time before the end of the countdown.\n///             - The agreement can be terminated by the staker by starting the countdown. Once the countdown completes the staker can retrieve their remaining stake.\n///             - Punishments use griefing which requires the counterparty to pay an appropriate amount based on the desired punishment and a predetermined ratio.\n///             - An operator can optionally be defined to grant full permissions to a trusted external address or contract.\ncontract CountdownGriefing is Countdown, Griefing, EventMetadata, Operated, Template {\n\n    using SafeMath for uint256;\n\n    Data private _data;\n    struct Data {\n        address staker;\n        address counterparty;\n    }\n\n    event Initialized(\n        address operator,\n        address staker,\n        address counterparty,\n        TokenManager.Tokens tokenID,\n        uint256 ratio,\n        Griefing.RatioType ratioType,\n        uint256 countdownLength,\n        bytes metadata\n    );\n\n    /// @notice Constructor used to initialize the agreement parameters.\n    ///         All parameters are passed as ABI-encoded calldata to the factory. This calldata must include the function selector.\n    /// @dev Access Control: only factory\n    ///      State Machine: before all\n    /// @param operator address of the operator that overrides access control. Optional parameter. Passing the address(0) will disable operator functionality.\n    /// @param staker address of the staker who owns the stake. Required parameter. This address is the only one able to retrieve the stake and cannot be changed.\n    /// @param counterparty address of the counterparty who has the right to reward, release, and punish the stake. Required parameter. This address cannot be changed.\n    /// @param tokenID TokenManager.Tokens ID of the ERC20 token. Required parameter. This ID must be one of the IDs supported by TokenManager.\n    /// @param ratio uint256 number (18 decimals) used to determine punishment cost. Required parameter. See Griefing module for details on valid input.\n    /// @param ratioType Griefing.RatioType number used to determine punishment cost. Required parameter. See Griefing module for details on valid input.\n    /// @param countdownLength uint256 amount of time (in seconds) the counterparty has to punish or reward before the agreement ends. Required parameter.\n    /// @param metadata bytes data (any format) to emit as event on initialization. Optional parameter.\n    function initialize(\n        address operator,\n        address staker,\n        address counterparty,\n        TokenManager.Tokens tokenID,\n        uint256 ratio,\n        Griefing.RatioType ratioType,\n        uint256 countdownLength,\n        bytes memory metadata\n    ) public initializeTemplate() {\n        // set storage values\n        _data.staker = staker;\n        _data.counterparty = counterparty;\n\n        // set operator\n        if (operator != address(0)) {\n            Operated._setOperator(operator);\n        }\n\n        // set griefing ratio\n        Griefing._setRatio(staker, tokenID, ratio, ratioType);\n\n        // set countdown length\n        Countdown._setLength(countdownLength);\n\n        // set metadata\n        if (metadata.length != 0) {\n            EventMetadata._setMetadata(metadata);\n        }\n\n        // log initialization params\n        emit Initialized(operator, staker, counterparty, tokenID, ratio, ratioType, countdownLength, metadata);\n    }\n\n    // state functions\n\n    /// @notice Emit metadata event\n    /// @dev Access Control: operator\n    ///      State Machine: always\n    /// @param metadata bytes data (any format) to emit as event\n    function setMetadata(bytes memory metadata) public {\n        // restrict access\n        require(Operated.isOperator(msg.sender), \"only operator\");\n\n        // update metadata\n        EventMetadata._setMetadata(metadata);\n    }\n\n    /// @notice Called by the staker to increase the stake\n    ///          - tokens (ERC-20) are transfered from the caller and requires approval of this contract for appropriate amount\n    /// @dev Access Control: staker OR operator\n    ///      State Machine: before isTerminated()\n    /// @param amountToAdd uint256 amount of tokens (18 decimals) to be added to the stake\n    function increaseStake(uint256 amountToAdd) public {\n        // restrict access\n        require(isStaker(msg.sender) || Operated.isOperator(msg.sender), \"only staker or operator\");\n\n        // require agreement is not ended\n        require(!isTerminated(), \"agreement ended\");\n\n        // declare variable in memory\n        address staker = _data.staker;\n\n        // add stake\n        Staking._addStake(Griefing.getTokenID(staker), staker, msg.sender, amountToAdd);\n    }\n\n    /// @notice Called by the counterparty to increase the stake\n    ///          - tokens (ERC-20) are transfered from the caller and requires approval of this contract for appropriate amount\n    /// @dev Access Control: counterparty OR operator\n    ///      State Machine: before isTerminated()\n    /// @param amountToAdd uint256 amount of tokens (18 decimals) to be added to the stake\n    function reward(uint256 amountToAdd) public {\n        // restrict access\n        require(isCounterparty(msg.sender) || Operated.isOperator(msg.sender), \"only counterparty or operator\");\n\n        // require agreement is not ended\n        require(!isTerminated(), \"agreement ended\");\n\n        // declare variable in memory\n        address staker = _data.staker;\n\n        // add stake\n        Staking._addStake(Griefing.getTokenID(staker), staker, msg.sender, amountToAdd);\n    }\n\n    /// @notice Called by the counterparty to punish the stake\n    ///          - burns the punishment from the stake and a proportional amount from the counterparty balance\n    ///          - the cost of the punishment is calculated with the `Griefing.getCost()` function using the predetermined griefing ratio\n    ///          - tokens (ERC-20) are burned from the caller and requires approval of this contract for appropriate amount\n    /// @dev Access Control: counterparty OR operator\n    ///      State Machine: before isTerminated()\n    /// @param punishment uint256 amount of tokens (18 decimals) to be burned from the stake\n    /// @param message bytes data (any format) to emit as event giving reason for the punishment\n    /// @return cost uint256 amount of tokens (18 decimals) it cost to perform punishment\n    function punish(uint256 punishment, bytes memory message) public returns (uint256 cost) {\n        // restrict access\n        require(isCounterparty(msg.sender) || Operated.isOperator(msg.sender), \"only counterparty or operator\");\n\n        // require agreement is not ended\n        require(!isTerminated(), \"agreement ended\");\n\n        // execute griefing\n        return Griefing._grief(msg.sender, _data.staker, punishment, message);\n    }\n\n    /// @notice Called by the counterparty to release the stake to the staker\n    /// @dev Access Control: counterparty OR operator\n    ///      State Machine: anytime\n    /// @param amountToRelease uint256 amount of tokens (18 decimals) to be released from the stake\n    function releaseStake(uint256 amountToRelease) public {\n        // restrict access\n        require(isCounterparty(msg.sender) || Operated.isOperator(msg.sender), \"only counterparty or operator\");\n\n        // declare variable in memory\n        address staker = _data.staker;\n\n        // release stake back to the staker\n        Staking._takeStake(Griefing.getTokenID(staker), staker, staker, amountToRelease);\n    }\n\n    /// @notice Called by the staker to begin countdown to finalize the agreement\n    /// @dev Access Control: staker OR operator\n    ///      State Machine: before Countdown.isActive()\n    /// @return deadline uint256 timestamp (Unix seconds) at which the agreement will be finalized\n    function startCountdown() public returns (uint256 deadline) {\n        // restrict access\n        require(isStaker(msg.sender) || Operated.isOperator(msg.sender), \"only staker or operator\");\n\n        // require countdown is not started\n        require(isInitialized(), \"deadline already set\");\n\n        // start countdown\n        return Countdown._start();\n    }\n\n    /// @notice Called by the staker to retrieve the remaining stake once the agreement has ended\n    /// @dev Access Control: staker OR operator\n    ///      State Machine: after Countdown.isOver()\n    /// @param recipient address of the account where to send the stake\n    /// @return amount uint256 amount of tokens (18 decimals) retrieved\n    function retrieveStake(address recipient) public returns (uint256 amount) {\n        // restrict access\n        require(isStaker(msg.sender) || Operated.isOperator(msg.sender), \"only staker or operator\");\n\n        // require deadline is passed\n        require(isTerminated(), \"deadline not passed\");\n\n        // declare variable in memory\n        address staker = _data.staker;\n\n        // retrieve stake\n        return Staking._takeFullStake(Griefing.getTokenID(staker), staker, recipient);\n    }\n\n    /// @notice Called by the operator to transfer control to new operator\n    /// @dev Access Control: operator\n    ///      State Machine: anytime\n    /// @param operator address of the new operator\n    function transferOperator(address operator) public {\n        // restrict access\n        require(Operated.isOperator(msg.sender), \"only operator\");\n\n        // transfer operator\n        Operated._transferOperator(operator);\n    }\n\n    /// @notice Called by the operator to renounce control\n    /// @dev Access Control: operator\n    ///      State Machine: anytime\n    function renounceOperator() public {\n        // restrict access\n        require(Operated.isOperator(msg.sender), \"only operator\");\n\n        // renounce operator\n        Operated._renounceOperator();\n    }\n\n    // view functions\n\n    /// @notice Get the address of the staker (if set)\n    /// @return staker address of the staker\n    function getStaker() public view returns (address staker) {\n        return _data.staker;\n    }\n\n    /// @notice Validate if the address matches the stored staker address\n    /// @param caller address to validate\n    /// @return validity bool true if matching address\n    function isStaker(address caller) internal view returns (bool validity) {\n        return caller == getStaker();\n    }\n\n    /// @notice Get the address of the counterparty (if set)\n    /// @return counterparty address of counterparty account\n    function getCounterparty() public view returns (address counterparty) {\n        return _data.counterparty;\n    }\n\n    /// @notice Validate if the address matches the stored counterparty address\n    /// @param caller address to validate\n    /// @return validity bool true if matching address\n    function isCounterparty(address caller) internal view returns (bool validity) {\n        return caller == getCounterparty();\n    }\n\n    /// @notice Get the token ID and address used by the agreement\n    /// @return tokenID TokenManager.Tokens ID of the ERC20 token.\n    /// @return token address of the ERC20 token.\n    function getToken() public view returns (TokenManager.Tokens tokenID, address token) {\n        tokenID = Griefing.getTokenID(_data.staker);\n        return (tokenID, TokenManager.getTokenAddress(tokenID));\n    }\n\n    /// @notice Get the current stake of the agreement\n    /// @return stake uint256 amount of tokens (18 decimals) staked.\n    function getStake() public view returns (uint256 stake) {\n        return Deposit.getDeposit(Griefing.getTokenID(_data.staker), _data.staker);\n    }\n\n    /// @notice Validate if the current stake is greater than 0\n    /// @return validity bool true if non-zero stake\n    function isStaked() public view returns (bool validity) {\n        uint256 currentStake = getStake();\n        return currentStake > 0;\n    }\n\n    enum AgreementStatus { isInitialized, isInCountdown, isTerminated }\n    /// @notice Get the status of the state machine\n    /// @return status AgreementStatus from the following states:\n    ///          - isInitialized: initialized but no deposits made\n    ///          - isInCountdown: staker has triggered countdown to termination\n    ///          - isTerminated: griefing agreement is over, staker can retrieve stake\n    function getAgreementStatus() public view returns (AgreementStatus status) {\n        if (Countdown.isOver()) {\n            return AgreementStatus.isTerminated;\n        } else if (Countdown.isActive()) {\n            return AgreementStatus.isInCountdown;\n        } else {\n            return AgreementStatus.isInitialized;\n        }\n    }\n\n    /// @notice Validate if the state machine is in the AgreementStatus.isInitialized state\n    /// @return validity bool true if correct state\n    function isInitialized() internal view returns (bool validity) {\n        return getAgreementStatus() == AgreementStatus.isInitialized;\n    }\n\n    /// @notice Validate if the state machine is in the AgreementStatus.isInCountdown state\n    /// @return validity bool true if correct state\n    function isInCountdown() internal view returns (bool validity) {\n        return getAgreementStatus() == AgreementStatus.isInCountdown;\n    }\n\n    /// @notice Validate if the state machine is in the AgreementStatus.isTerminated state\n    /// @return validity bool true if correct state\n    function isTerminated() internal view returns (bool validity) {\n        return getAgreementStatus() == AgreementStatus.isTerminated;\n    }\n}\n",
  "sourcePath": "/Users/thegostep/github/erasure-protocol/contracts/agreements/CountdownGriefing.sol",
  "compiler": {
    "name": "solc",
    "version": "0.5.13+commit.5b0b510c.Emscripten.clang",
    "optimizer": false,
    "runs": 200
  },
  "schemaVersion": "2.2.4",
  "updatedAt": "2020-01-08T17:56:10.830Z"
}